{
  "_format": "hh-sol-artifact-1",
  "contractName": "VotingProposals",
  "sourceName": "contracts/VotingProposals.sol",
  "abi": [
    {
      "inputs": [],
      "stateMutability": "nonpayable",
      "type": "constructor"
    },
    {
      "anonymous": false,
      "inputs": [],
      "name": "ProposalsChange",
      "type": "event"
    },
    {
      "inputs": [
        {
          "internalType": "address",
          "name": "_user",
          "type": "address"
        }
      ],
      "name": "contains",
      "outputs": [
        {
          "internalType": "bool",
          "name": "",
          "type": "bool"
        }
      ],
      "stateMutability": "view",
      "type": "function"
    },
    {
      "inputs": [
        {
          "internalType": "uint256",
          "name": "index",
          "type": "uint256"
        }
      ],
      "name": "getProposal",
      "outputs": [
        {
          "components": [
            {
              "internalType": "address",
              "name": "proposedBy",
              "type": "address"
            },
            {
              "internalType": "uint256",
              "name": "vote",
              "type": "uint256"
            },
            {
              "internalType": "string",
              "name": "text",
              "type": "string"
            }
          ],
          "internalType": "struct VotingProposals.Proposal",
          "name": "",
          "type": "tuple"
        }
      ],
      "stateMutability": "view",
      "type": "function"
    },
    {
      "inputs": [],
      "name": "getProposalsLength",
      "outputs": [
        {
          "internalType": "uint256",
          "name": "",
          "type": "uint256"
        }
      ],
      "stateMutability": "view",
      "type": "function"
    },
    {
      "inputs": [],
      "name": "owner",
      "outputs": [
        {
          "internalType": "address",
          "name": "",
          "type": "address"
        }
      ],
      "stateMutability": "view",
      "type": "function"
    },
    {
      "inputs": [
        {
          "internalType": "address",
          "name": "",
          "type": "address"
        }
      ],
      "name": "proposalByUser",
      "outputs": [
        {
          "internalType": "address",
          "name": "proposedBy",
          "type": "address"
        },
        {
          "internalType": "uint256",
          "name": "vote",
          "type": "uint256"
        },
        {
          "internalType": "string",
          "name": "text",
          "type": "string"
        }
      ],
      "stateMutability": "view",
      "type": "function"
    },
    {
      "inputs": [
        {
          "internalType": "uint256",
          "name": "",
          "type": "uint256"
        }
      ],
      "name": "proposals",
      "outputs": [
        {
          "internalType": "address",
          "name": "proposedBy",
          "type": "address"
        },
        {
          "internalType": "uint256",
          "name": "vote",
          "type": "uint256"
        },
        {
          "internalType": "string",
          "name": "text",
          "type": "string"
        }
      ],
      "stateMutability": "view",
      "type": "function"
    },
    {
      "inputs": [
        {
          "internalType": "uint256",
          "name": "",
          "type": "uint256"
        }
      ],
      "name": "proposedUsers",
      "outputs": [
        {
          "internalType": "address",
          "name": "",
          "type": "address"
        }
      ],
      "stateMutability": "view",
      "type": "function"
    },
    {
      "inputs": [
        {
          "internalType": "address",
          "name": "_user",
          "type": "address"
        }
      ],
      "name": "registerUser",
      "outputs": [],
      "stateMutability": "nonpayable",
      "type": "function"
    },
    {
      "inputs": [
        {
          "internalType": "address",
          "name": "",
          "type": "address"
        }
      ],
      "name": "registerdVoters",
      "outputs": [
        {
          "internalType": "bool",
          "name": "",
          "type": "bool"
        }
      ],
      "stateMutability": "view",
      "type": "function"
    },
    {
      "inputs": [
        {
          "internalType": "address",
          "name": "_user",
          "type": "address"
        }
      ],
      "name": "retriveUser",
      "outputs": [
        {
          "components": [
            {
              "internalType": "address",
              "name": "userAddress",
              "type": "address"
            },
            {
              "internalType": "bool",
              "name": "isVoted",
              "type": "bool"
            },
            {
              "internalType": "bool",
              "name": "isProposed",
              "type": "bool"
            },
            {
              "internalType": "bool",
              "name": "isRegistered",
              "type": "bool"
            }
          ],
          "internalType": "struct VotingProposals.User",
          "name": "",
          "type": "tuple"
        }
      ],
      "stateMutability": "view",
      "type": "function"
    },
    {
      "inputs": [
        {
          "internalType": "address",
          "name": "_user",
          "type": "address"
        },
        {
          "internalType": "string",
          "name": "_proposal",
          "type": "string"
        }
      ],
      "name": "sendProposal",
      "outputs": [],
      "stateMutability": "nonpayable",
      "type": "function"
    },
    {
      "inputs": [
        {
          "internalType": "address",
          "name": "",
          "type": "address"
        }
      ],
      "name": "userByAddress",
      "outputs": [
        {
          "internalType": "address",
          "name": "userAddress",
          "type": "address"
        },
        {
          "internalType": "bool",
          "name": "isVoted",
          "type": "bool"
        },
        {
          "internalType": "bool",
          "name": "isProposed",
          "type": "bool"
        },
        {
          "internalType": "bool",
          "name": "isRegistered",
          "type": "bool"
        }
      ],
      "stateMutability": "view",
      "type": "function"
    },
    {
      "inputs": [
        {
          "internalType": "address",
          "name": "_user",
          "type": "address"
        },
        {
          "internalType": "address",
          "name": "_voteFor",
          "type": "address"
        }
      ],
      "name": "vote",
      "outputs": [],
      "stateMutability": "nonpayable",
      "type": "function"
    }
  ],
  "bytecode": "0x60806040523480156200001157600080fd5b50336000806101000a81548173ffffffffffffffffffffffffffffffffffffffff021916908373ffffffffffffffffffffffffffffffffffffffff1602179055506000600181905550620000c66040518060400160405280600981526020017f6f776e65722069733a000000000000000000000000000000000000000000000081525060008054906101000a900473ffffffffffffffffffffffffffffffffffffffff16620000cc60201b62000fa91760201c565b620002b8565b6200016e8282604051602401620000e5929190620001ed565b6040516020818303038152906040527f319af333000000000000000000000000000000000000000000000000000000007bffffffffffffffffffffffffffffffffffffffffffffffffffffffff19166020820180517bffffffffffffffffffffffffffffffffffffffffffffffffffffffff83818316178352505050506200017260201b60201c565b5050565b60008151905060006a636f6e736f6c652e6c6f679050602083016000808483855afa5050505050565b620001a6816200023d565b82525050565b6000620001b98262000221565b620001c581856200022c565b9350620001d781856020860162000271565b620001e281620002a7565b840191505092915050565b60006040820190508181036000830152620002098185620001ac565b90506200021a60208301846200019b565b9392505050565b600081519050919050565b600082825260208201905092915050565b60006200024a8262000251565b9050919050565b600073ffffffffffffffffffffffffffffffffffffffff82169050919050565b60005b838110156200029157808201518184015260208101905062000274565b83811115620002a1576000848401525b50505050565b6000601f19601f8301169050919050565b611a8980620002c86000396000f3fe608060405234801561001057600080fd5b50600436106100cf5760003560e01c80638da5cb5b1161008c578063b085c68811610066578063b085c6881461023b578063bc378a731461026b578063c7f758a814610289578063f897bb24146102b9576100cf565b80638da5cb5b146101ba578063989e5ea9146101d8578063abb999bb1461020b576100cf565b8063013cf08b146100d45780631afa74e5146101065780632199d5cd146101225780635dbe47e81461013e57806384275f0b1461016e578063858e7ce61461019e575b600080fd5b6100ee60048036038101906100e991906112d7565b6102eb565b6040516100fd93929190611580565b60405180910390f35b610120600480360381019061011b9190611247565b6103cd565b005b61013c6004803603810190610137919061121e565b610590565b005b6101586004803603810190610153919061121e565b6107b0565b60405161016591906115be565b60405180910390f35b6101886004803603810190610183919061121e565b610806565b60405161019591906116cb565b60405180910390f35b6101b860048036038101906101b39190611283565b610906565b005b6101c2610c21565b6040516101cf9190611520565b60405180910390f35b6101f260048036038101906101ed919061121e565b610c45565b604051610202949392919061153b565b60405180910390f35b6102256004803603810190610220919061121e565b610cbc565b60405161023291906115be565b60405180910390f35b610255600480360381019061025091906112d7565b610cdc565b6040516102629190611520565b60405180910390f35b610273610d1b565b60405161028091906116e6565b60405180910390f35b6102a3600480360381019061029e91906112d7565b610d28565b6040516102b091906116a9565b60405180910390f35b6102d360048036038101906102ce919061121e565b610ed7565b6040516102e293929190611580565b60405180910390f35b600581815481106102fb57600080fd5b90600052602060002090600302016000915090508060000160009054906101000a900473ffffffffffffffffffffffffffffffffffffffff169080600101549080600201805461034a9061180e565b80601f01602080910402602001604051908101604052809291908181526020018280546103769061180e565b80156103c35780601f10610398576101008083540402835291602001916103c3565b820191906000526020600020905b8154815290600101906020018083116103a657829003601f168201915b5050505050905083565b816103d7816107b0565b610416576040517f08c379a000000000000000000000000000000000000000000000000000000000815260040161040d90611649565b60405180910390fd5b60001515600360008573ffffffffffffffffffffffffffffffffffffffff1673ffffffffffffffffffffffffffffffffffffffff16815260200190815260200160002060000160149054906101000a900460ff161515146104ac576040517f08c379a00000000000000000000000000000000000000000000000000000000081526004016104a390611689565b60405180910390fd5b600460008373ffffffffffffffffffffffffffffffffffffffff1673ffffffffffffffffffffffffffffffffffffffff16815260200190815260200160002060010160008154809291906104ff90611871565b91905055506001600360008573ffffffffffffffffffffffffffffffffffffffff1673ffffffffffffffffffffffffffffffffffffffff16815260200190815260200160002060000160146101000a81548160ff0219169083151502179055507f095e0822402402a17b7f31ee5e522bfc553def6930675ac96c71c9551f238e7560405160405180910390a1505050565b60008054906101000a900473ffffffffffffffffffffffffffffffffffffffff1673ffffffffffffffffffffffffffffffffffffffff163373ffffffffffffffffffffffffffffffffffffffff161461061e576040517f08c379a000000000000000000000000000000000000000000000000000000000815260040161061590611609565b60405180910390fd5b610627816107b0565b6107ad576001600260008373ffffffffffffffffffffffffffffffffffffffff1673ffffffffffffffffffffffffffffffffffffffff16815260200190815260200160002060006101000a81548160ff02191690831515021790555060405180608001604052808273ffffffffffffffffffffffffffffffffffffffff16815260200160001515815260200160001515815260200160011515815250600360008373ffffffffffffffffffffffffffffffffffffffff1673ffffffffffffffffffffffffffffffffffffffff16815260200190815260200160002060008201518160000160006101000a81548173ffffffffffffffffffffffffffffffffffffffff021916908373ffffffffffffffffffffffffffffffffffffffff16021790555060208201518160000160146101000a81548160ff02191690831515021790555060408201518160000160156101000a81548160ff02191690831515021790555060608201518160000160166101000a81548160ff0219169083151502179055509050505b50565b6000600260008373ffffffffffffffffffffffffffffffffffffffff1673ffffffffffffffffffffffffffffffffffffffff16815260200190815260200160002060009054906101000a900460ff169050919050565b61080e61106e565b600360008373ffffffffffffffffffffffffffffffffffffffff1673ffffffffffffffffffffffffffffffffffffffff1681526020019081526020016000206040518060800160405290816000820160009054906101000a900473ffffffffffffffffffffffffffffffffffffffff1673ffffffffffffffffffffffffffffffffffffffff1673ffffffffffffffffffffffffffffffffffffffff1681526020016000820160149054906101000a900460ff161515151581526020016000820160159054906101000a900460ff161515151581526020016000820160169054906101000a900460ff1615151515815250509050919050565b61090f826107b0565b80156109685750600360008373ffffffffffffffffffffffffffffffffffffffff1673ffffffffffffffffffffffffffffffffffffffff16815260200190815260200160002060000160159054906101000a900460ff16155b15610b4457600060405180606001604052808473ffffffffffffffffffffffffffffffffffffffff1681526020016000815260200183815250905080600460008573ffffffffffffffffffffffffffffffffffffffff1673ffffffffffffffffffffffffffffffffffffffff16815260200190815260200160002060008201518160000160006101000a81548173ffffffffffffffffffffffffffffffffffffffff021916908373ffffffffffffffffffffffffffffffffffffffff160217905550602082015181600101556040820151816002019080519060200190610a509291906110b2565b509050506001600360008573ffffffffffffffffffffffffffffffffffffffff1673ffffffffffffffffffffffffffffffffffffffff16815260200190815260200160002060000160156101000a81548160ff0219169083151502179055506006839080600181540180825580915050600190039060005260206000200160009091909190916101000a81548173ffffffffffffffffffffffffffffffffffffffff021916908373ffffffffffffffffffffffffffffffffffffffff1602179055507f095e0822402402a17b7f31ee5e522bfc553def6930675ac96c71c9551f238e7560405160405180910390a150610c1d565b610b4d826107b0565b610b8c576040517f08c379a0000000000000000000000000000000000000000000000000000000008152600401610b8390611629565b60405180910390fd5b600360008373ffffffffffffffffffffffffffffffffffffffff1673ffffffffffffffffffffffffffffffffffffffff16815260200190815260200160002060000160159054906101000a900460ff1615610c1c576040517f08c379a0000000000000000000000000000000000000000000000000000000008152600401610c1390611669565b60405180910390fd5b5b5050565b60008054906101000a900473ffffffffffffffffffffffffffffffffffffffff1681565b60036020528060005260406000206000915090508060000160009054906101000a900473ffffffffffffffffffffffffffffffffffffffff16908060000160149054906101000a900460ff16908060000160159054906101000a900460ff16908060000160169054906101000a900460ff16905084565b60026020528060005260406000206000915054906101000a900460ff1681565b60068181548110610cec57600080fd5b906000526020600020016000915054906101000a900473ffffffffffffffffffffffffffffffffffffffff1681565b6000600680549050905090565b610d30611138565b6004600060068481548110610d6e577f4e487b7100000000000000000000000000000000000000000000000000000000600052603260045260246000fd5b9060005260206000200160009054906101000a900473ffffffffffffffffffffffffffffffffffffffff1673ffffffffffffffffffffffffffffffffffffffff1673ffffffffffffffffffffffffffffffffffffffff1681526020019081526020016000206040518060600160405290816000820160009054906101000a900473ffffffffffffffffffffffffffffffffffffffff1673ffffffffffffffffffffffffffffffffffffffff1673ffffffffffffffffffffffffffffffffffffffff16815260200160018201548152602001600282018054610e4e9061180e565b80601f0160208091040260200160405190810160405280929190818152602001828054610e7a9061180e565b8015610ec75780601f10610e9c57610100808354040283529160200191610ec7565b820191906000526020600020905b815481529060010190602001808311610eaa57829003601f168201915b5050505050815250509050919050565b60046020528060005260406000206000915090508060000160009054906101000a900473ffffffffffffffffffffffffffffffffffffffff1690806001015490806002018054610f269061180e565b80601f0160208091040260200160405190810160405280929190818152602001828054610f529061180e565b8015610f9f5780601f10610f7457610100808354040283529160200191610f9f565b820191906000526020600020905b815481529060010190602001808311610f8257829003601f168201915b5050505050905083565b6110418282604051602401610fbf9291906115d9565b6040516020818303038152906040527f319af333000000000000000000000000000000000000000000000000000000007bffffffffffffffffffffffffffffffffffffffffffffffffffffffff19166020820180517bffffffffffffffffffffffffffffffffffffffffffffffffffffffff8381831617835250505050611045565b5050565b60008151905060006a636f6e736f6c652e6c6f679050602083016000808483855afa5050505050565b6040518060800160405280600073ffffffffffffffffffffffffffffffffffffffff1681526020016000151581526020016000151581526020016000151581525090565b8280546110be9061180e565b90600052602060002090601f0160209004810192826110e05760008555611127565b82601f106110f957805160ff1916838001178555611127565b82800160010185558215611127579182015b8281111561112657825182559160200191906001019061110b565b5b509050611134919061116f565b5090565b6040518060600160405280600073ffffffffffffffffffffffffffffffffffffffff16815260200160008152602001606081525090565b5b80821115611188576000816000905550600101611170565b5090565b600061119f61119a84611726565b611701565b9050828152602081018484840111156111b757600080fd5b6111c28482856117cc565b509392505050565b6000813590506111d981611a25565b92915050565b600082601f8301126111f057600080fd5b813561120084826020860161118c565b91505092915050565b60008135905061121881611a3c565b92915050565b60006020828403121561123057600080fd5b600061123e848285016111ca565b91505092915050565b6000806040838503121561125a57600080fd5b6000611268858286016111ca565b9250506020611279858286016111ca565b9150509250929050565b6000806040838503121561129657600080fd5b60006112a4858286016111ca565b925050602083013567ffffffffffffffff8111156112c157600080fd5b6112cd858286016111df565b9150509250929050565b6000602082840312156112e957600080fd5b60006112f784828501611209565b91505092915050565b61130981611784565b82525050565b61131881611784565b82525050565b61132781611796565b82525050565b61133681611796565b82525050565b600061134782611757565b6113518185611762565b93506113618185602086016117db565b61136a81611947565b840191505092915050565b600061138082611757565b61138a8185611773565b935061139a8185602086016117db565b6113a381611947565b840191505092915050565b60006113bb601883611773565b91506113c682611958565b602082019050919050565b60006113de601483611773565b91506113e982611981565b602082019050919050565b6000611401601683611773565b915061140c826119aa565b602082019050919050565b6000611424601183611773565b915061142f826119d3565b602082019050919050565b6000611447601283611773565b9150611452826119fc565b602082019050919050565b60006060830160008301516114756000860182611300565b5060208301516114886020860182611502565b50604083015184820360408601526114a0828261133c565b9150508091505092915050565b6080820160008201516114c36000850182611300565b5060208201516114d6602085018261131e565b5060408201516114e9604085018261131e565b5060608201516114fc606085018261131e565b50505050565b61150b816117c2565b82525050565b61151a816117c2565b82525050565b6000602082019050611535600083018461130f565b92915050565b6000608082019050611550600083018761130f565b61155d602083018661132d565b61156a604083018561132d565b611577606083018461132d565b95945050505050565b6000606082019050611595600083018661130f565b6115a26020830185611511565b81810360408301526115b48184611375565b9050949350505050565b60006020820190506115d3600083018461132d565b92915050565b600060408201905081810360008301526115f38185611375565b9050611602602083018461130f565b9392505050565b60006020820190508181036000830152611622816113ae565b9050919050565b60006020820190508181036000830152611642816113d1565b9050919050565b60006020820190508181036000830152611662816113f4565b9050919050565b6000602082019050818103600083015261168281611417565b9050919050565b600060208201905081810360008301526116a28161143a565b9050919050565b600060208201905081810360008301526116c3818461145d565b905092915050565b60006080820190506116e060008301846114ad565b92915050565b60006020820190506116fb6000830184611511565b92915050565b600061170b61171c565b90506117178282611840565b919050565b6000604051905090565b600067ffffffffffffffff82111561174157611740611918565b5b61174a82611947565b9050602081019050919050565b600081519050919050565b600082825260208201905092915050565b600082825260208201905092915050565b600061178f826117a2565b9050919050565b60008115159050919050565b600073ffffffffffffffffffffffffffffffffffffffff82169050919050565b6000819050919050565b82818337600083830152505050565b60005b838110156117f95780820151818401526020810190506117de565b83811115611808576000848401525b50505050565b6000600282049050600182168061182657607f821691505b6020821081141561183a576118396118e9565b5b50919050565b61184982611947565b810181811067ffffffffffffffff8211171561186857611867611918565b5b80604052505050565b600061187c826117c2565b91507fffffffffffffffffffffffffffffffffffffffffffffffffffffffffffffffff8214156118af576118ae6118ba565b5b600182019050919050565b7f4e487b7100000000000000000000000000000000000000000000000000000000600052601160045260246000fd5b7f4e487b7100000000000000000000000000000000000000000000000000000000600052602260045260246000fd5b7f4e487b7100000000000000000000000000000000000000000000000000000000600052604160045260246000fd5b6000601f19601f8301169050919050565b7f6f6e6c7920637261746572206f6620636f6e7472616374200000000000000000600082015250565b7f706c656173652072656769737465722066697273000000000000000000000000600082015250565b7f706c656173652072656167697374657220666972737400000000000000000000600082015250565b7f616c72656164792070726f706f73656421000000000000000000000000000000600082015250565b7f796f7520616c726561647920766f746564210000000000000000000000000000600082015250565b611a2e81611784565b8114611a3957600080fd5b50565b611a45816117c2565b8114611a5057600080fd5b5056fea2646970667358221220f9c4fa1784754fd3cb280b329833e796f58e6c751a888b59d846e9ef201b49b864736f6c63430008040033",
  "linkReferences": {},
  "deployedLinkReferences": {}
}