{
  "_format": "hh-sol-artifact-1",
  "contractName": "VotingProposals",
  "sourceName": "contracts/VotingProposals.sol",
  "abi": [
    {
      "inputs": [],
      "stateMutability": "nonpayable",
      "type": "constructor"
    },
    {
      "inputs": [
        {
          "internalType": "address",
          "name": "_voter",
          "type": "address"
        }
      ],
      "name": "contains",
      "outputs": [
        {
          "internalType": "bool",
          "name": "",
          "type": "bool"
        }
      ],
      "stateMutability": "view",
      "type": "function"
    },
    {
      "inputs": [],
      "name": "getProposals",
      "outputs": [
        {
          "components": [
            {
              "internalType": "address",
              "name": "proposedBy",
              "type": "address"
            },
            {
              "internalType": "uint256",
              "name": "vote",
              "type": "uint256"
            },
            {
              "internalType": "string",
              "name": "text",
              "type": "string"
            }
          ],
          "internalType": "struct VotingProposals.Proposal[]",
          "name": "",
          "type": "tuple[]"
        }
      ],
      "stateMutability": "view",
      "type": "function"
    },
    {
      "inputs": [],
      "name": "owner",
      "outputs": [
        {
          "internalType": "address",
          "name": "",
          "type": "address"
        }
      ],
      "stateMutability": "view",
      "type": "function"
    },
    {
      "inputs": [
        {
          "internalType": "uint256",
          "name": "",
          "type": "uint256"
        }
      ],
      "name": "proposals",
      "outputs": [
        {
          "internalType": "address",
          "name": "proposedBy",
          "type": "address"
        },
        {
          "internalType": "uint256",
          "name": "vote",
          "type": "uint256"
        },
        {
          "internalType": "string",
          "name": "text",
          "type": "string"
        }
      ],
      "stateMutability": "view",
      "type": "function"
    },
    {
      "inputs": [
        {
          "internalType": "address",
          "name": "_user",
          "type": "address"
        }
      ],
      "name": "registerUser",
      "outputs": [],
      "stateMutability": "nonpayable",
      "type": "function"
    },
    {
      "inputs": [
        {
          "internalType": "address",
          "name": "",
          "type": "address"
        }
      ],
      "name": "registerdVoters",
      "outputs": [
        {
          "internalType": "bool",
          "name": "",
          "type": "bool"
        }
      ],
      "stateMutability": "view",
      "type": "function"
    },
    {
      "inputs": [
        {
          "internalType": "address",
          "name": "_user",
          "type": "address"
        }
      ],
      "name": "retriveUser",
      "outputs": [
        {
          "components": [
            {
              "internalType": "address",
              "name": "userAddress",
              "type": "address"
            },
            {
              "internalType": "bool",
              "name": "isVoted",
              "type": "bool"
            },
            {
              "internalType": "bool",
              "name": "isProposed",
              "type": "bool"
            },
            {
              "internalType": "bool",
              "name": "isRegistered",
              "type": "bool"
            },
            {
              "components": [
                {
                  "internalType": "address",
                  "name": "proposedBy",
                  "type": "address"
                },
                {
                  "internalType": "uint256",
                  "name": "vote",
                  "type": "uint256"
                },
                {
                  "internalType": "string",
                  "name": "text",
                  "type": "string"
                }
              ],
              "internalType": "struct VotingProposals.Proposal",
              "name": "proposal",
              "type": "tuple"
            }
          ],
          "internalType": "struct VotingProposals.User",
          "name": "",
          "type": "tuple"
        }
      ],
      "stateMutability": "view",
      "type": "function"
    },
    {
      "inputs": [
        {
          "internalType": "address",
          "name": "_user",
          "type": "address"
        },
        {
          "internalType": "string",
          "name": "_proposal",
          "type": "string"
        }
      ],
      "name": "sendProposal",
      "outputs": [],
      "stateMutability": "nonpayable",
      "type": "function"
    },
    {
      "inputs": [
        {
          "internalType": "address",
          "name": "",
          "type": "address"
        }
      ],
      "name": "userByAddress",
      "outputs": [
        {
          "internalType": "address",
          "name": "userAddress",
          "type": "address"
        },
        {
          "internalType": "bool",
          "name": "isVoted",
          "type": "bool"
        },
        {
          "internalType": "bool",
          "name": "isProposed",
          "type": "bool"
        },
        {
          "internalType": "bool",
          "name": "isRegistered",
          "type": "bool"
        },
        {
          "components": [
            {
              "internalType": "address",
              "name": "proposedBy",
              "type": "address"
            },
            {
              "internalType": "uint256",
              "name": "vote",
              "type": "uint256"
            },
            {
              "internalType": "string",
              "name": "text",
              "type": "string"
            }
          ],
          "internalType": "struct VotingProposals.Proposal",
          "name": "proposal",
          "type": "tuple"
        }
      ],
      "stateMutability": "view",
      "type": "function"
    }
  ],
  "bytecode": "0x60806040523480156200001157600080fd5b50336000806101000a81548173ffffffffffffffffffffffffffffffffffffffff021916908373ffffffffffffffffffffffffffffffffffffffff1602179055506000600181905550620000c66040518060400160405280600981526020017f6f776e65722069733a000000000000000000000000000000000000000000000081525060008054906101000a900473ffffffffffffffffffffffffffffffffffffffff16620000cc60201b62000ec01760201c565b620002b8565b6200016e8282604051602401620000e5929190620001ed565b6040516020818303038152906040527f319af333000000000000000000000000000000000000000000000000000000007bffffffffffffffffffffffffffffffffffffffffffffffffffffffff19166020820180517bffffffffffffffffffffffffffffffffffffffffffffffffffffffff83818316178352505050506200017260201b60201c565b5050565b60008151905060006a636f6e736f6c652e6c6f679050602083016000808483855afa5050505050565b620001a6816200023d565b82525050565b6000620001b98262000221565b620001c581856200022c565b9350620001d781856020860162000271565b620001e281620002a7565b840191505092915050565b60006040820190508181036000830152620002098185620001ac565b90506200021a60208301846200019b565b9392505050565b600081519050919050565b600082825260208201905092915050565b60006200024a8262000251565b9050919050565b600073ffffffffffffffffffffffffffffffffffffffff82169050919050565b60005b838110156200029157808201518184015260208101905062000274565b83811115620002a1576000848401525b50505050565b6000601f19601f8301169050919050565b611a5a80620002c86000396000f3fe608060405234801561001057600080fd5b50600436106100935760003560e01c806384275f0b1161006657806384275f0b14610134578063858e7ce6146101645780638da5cb5b14610180578063989e5ea91461019e578063abb999bb146101d257610093565b8063013cf08b146100985780632199d5cd146100ca5780635dbe47e8146100e657806362564c4814610116575b600080fd5b6100b260048036038101906100ad91906112eb565b610202565b6040516100c19392919061167f565b60405180910390f35b6100e460048036038101906100df919061126e565b6102e4565b005b61010060048036038101906100fb919061126e565b61058d565b60405161010d91906116df565b60405180910390f35b61011e6105e3565b60405161012b91906116bd565b60405180910390f35b61014e6004803603810190610149919061126e565b610734565b60405161015b919061176a565b60405180910390f35b61017e60048036038101906101799190611297565b61093a565b005b610188610d03565b60405161019591906115c5565b60405180910390f35b6101b860048036038101906101b3919061126e565b610d27565b6040516101c99594939291906115e0565b60405180910390f35b6101ec60048036038101906101e7919061126e565b610ea0565b6040516101f991906116df565b60405180910390f35b6004818154811061021257600080fd5b90600052602060002090600302016000915090508060000160009054906101000a900473ffffffffffffffffffffffffffffffffffffffff1690806001015490806002018054610261906118d2565b80601f016020809104026020016040519081016040528092919081815260200182805461028d906118d2565b80156102da5780601f106102af576101008083540402835291602001916102da565b820191906000526020600020905b8154815290600101906020018083116102bd57829003601f168201915b5050505050905083565b60008054906101000a900473ffffffffffffffffffffffffffffffffffffffff1673ffffffffffffffffffffffffffffffffffffffff163373ffffffffffffffffffffffffffffffffffffffff161461033c57600080fd5b6103458161058d565b61058a576001600260008373ffffffffffffffffffffffffffffffffffffffff1673ffffffffffffffffffffffffffffffffffffffff16815260200190815260200160002060006101000a81548160ff0219169083151502179055506040518060a001604052808273ffffffffffffffffffffffffffffffffffffffff16815260200160001515815260200160001515815260200160011515815260200160405180606001604052808473ffffffffffffffffffffffffffffffffffffffff1681526020016000815260200160405180602001604052806000815250815250815250600360008373ffffffffffffffffffffffffffffffffffffffff1673ffffffffffffffffffffffffffffffffffffffff16815260200190815260200160002060008201518160000160006101000a81548173ffffffffffffffffffffffffffffffffffffffff021916908373ffffffffffffffffffffffffffffffffffffffff16021790555060208201518160000160146101000a81548160ff02191690831515021790555060408201518160000160156101000a81548160ff02191690831515021790555060608201518160000160166101000a81548160ff02191690831515021790555060808201518160010160008201518160000160006101000a81548173ffffffffffffffffffffffffffffffffffffffff021916908373ffffffffffffffffffffffffffffffffffffffff160217905550602082015181600101556040820151816002019080519060200190610583929190611024565b5050509050505b50565b6000600260008373ffffffffffffffffffffffffffffffffffffffff1673ffffffffffffffffffffffffffffffffffffffff16815260200190815260200160002060009054906101000a900460ff169050919050565b60606004805480602002602001604051908101604052809291908181526020016000905b8282101561072b57838290600052602060002090600302016040518060600160405290816000820160009054906101000a900473ffffffffffffffffffffffffffffffffffffffff1673ffffffffffffffffffffffffffffffffffffffff1673ffffffffffffffffffffffffffffffffffffffff1681526020016001820154815260200160028201805461069a906118d2565b80601f01602080910402602001604051908101604052809291908181526020018280546106c6906118d2565b80156107135780601f106106e857610100808354040283529160200191610713565b820191906000526020600020905b8154815290600101906020018083116106f657829003601f168201915b50505050508152505081526020019060010190610607565b50505050905090565b61073c6110aa565b600360008373ffffffffffffffffffffffffffffffffffffffff1673ffffffffffffffffffffffffffffffffffffffff1681526020019081526020016000206040518060a00160405290816000820160009054906101000a900473ffffffffffffffffffffffffffffffffffffffff1673ffffffffffffffffffffffffffffffffffffffff1673ffffffffffffffffffffffffffffffffffffffff1681526020016000820160149054906101000a900460ff161515151581526020016000820160159054906101000a900460ff161515151581526020016000820160169054906101000a900460ff16151515158152602001600182016040518060600160405290816000820160009054906101000a900473ffffffffffffffffffffffffffffffffffffffff1673ffffffffffffffffffffffffffffffffffffffff1673ffffffffffffffffffffffffffffffffffffffff168152602001600182015481526020016002820180546108ad906118d2565b80601f01602080910402602001604051908101604052809291908181526020018280546108d9906118d2565b80156109265780601f106108fb57610100808354040283529160200191610926565b820191906000526020600020905b81548152906001019060200180831161090957829003601f168201915b505050505081525050815250509050919050565b6109438261058d565b801561099c5750600360008373ffffffffffffffffffffffffffffffffffffffff1673ffffffffffffffffffffffffffffffffffffffff16815260200190815260200160002060000160159054906101000a900460ff16155b15610c265760405180606001604052808373ffffffffffffffffffffffffffffffffffffffff1681526020016000815260200182815250600360008473ffffffffffffffffffffffffffffffffffffffff1673ffffffffffffffffffffffffffffffffffffffff16815260200190815260200160002060010160008201518160000160006101000a81548173ffffffffffffffffffffffffffffffffffffffff021916908373ffffffffffffffffffffffffffffffffffffffff160217905550602082015181600101556040820151816002019080519060200190610a82929190611024565b509050506001600360008473ffffffffffffffffffffffffffffffffffffffff1673ffffffffffffffffffffffffffffffffffffffff16815260200190815260200160002060000160156101000a81548160ff0219169083151502179055506004600360008473ffffffffffffffffffffffffffffffffffffffff1673ffffffffffffffffffffffffffffffffffffffff16815260200190815260200160002060010190806001815401808255809150506001900390600052602060002090600302016000909190919091506000820160009054906101000a900473ffffffffffffffffffffffffffffffffffffffff168160000160006101000a81548173ffffffffffffffffffffffffffffffffffffffff021916908373ffffffffffffffffffffffffffffffffffffffff160217905550600182015481600101556002820181600201908054610bd3906118d2565b610bde9291906110fb565b505050610c21826040518060400160405280600e81526020017f2070726f706f73616c2069733a2000000000000000000000000000000000000081525083610f5c565b610cff565b610c2f8261058d565b610c6e576040517f08c379a0000000000000000000000000000000000000000000000000000000008152600401610c659061172a565b60405180910390fd5b600360008373ffffffffffffffffffffffffffffffffffffffff1673ffffffffffffffffffffffffffffffffffffffff16815260200190815260200160002060000160159054906101000a900460ff1615610cfe576040517f08c379a0000000000000000000000000000000000000000000000000000000008152600401610cf59061174a565b60405180910390fd5b5b5050565b60008054906101000a900473ffffffffffffffffffffffffffffffffffffffff1681565b60036020528060005260406000206000915090508060000160009054906101000a900473ffffffffffffffffffffffffffffffffffffffff16908060000160149054906101000a900460ff16908060000160159054906101000a900460ff16908060000160169054906101000a900460ff1690806001016040518060600160405290816000820160009054906101000a900473ffffffffffffffffffffffffffffffffffffffff1673ffffffffffffffffffffffffffffffffffffffff1673ffffffffffffffffffffffffffffffffffffffff16815260200160018201548152602001600282018054610e19906118d2565b80601f0160208091040260200160405190810160405280929190818152602001828054610e45906118d2565b8015610e925780601f10610e6757610100808354040283529160200191610e92565b820191906000526020600020905b815481529060010190602001808311610e7557829003601f168201915b505050505081525050905085565b60026020528060005260406000206000915054906101000a900460ff1681565b610f588282604051602401610ed69291906116fa565b6040516020818303038152906040527f319af333000000000000000000000000000000000000000000000000000000007bffffffffffffffffffffffffffffffffffffffffffffffffffffffff19166020820180517bffffffffffffffffffffffffffffffffffffffffffffffffffffffff8381831617835250505050610ffb565b5050565b610ff6838383604051602401610f749392919061163a565b6040516020818303038152906040527ffb772265000000000000000000000000000000000000000000000000000000007bffffffffffffffffffffffffffffffffffffffffffffffffffffffff19166020820180517bffffffffffffffffffffffffffffffffffffffffffffffffffffffff8381831617835250505050610ffb565b505050565b60008151905060006a636f6e736f6c652e6c6f679050602083016000808483855afa5050505050565b828054611030906118d2565b90600052602060002090601f0160209004810192826110525760008555611099565b82601f1061106b57805160ff1916838001178555611099565b82800160010185558215611099579182015b8281111561109857825182559160200191906001019061107d565b5b5090506110a69190611188565b5090565b6040518060a00160405280600073ffffffffffffffffffffffffffffffffffffffff1681526020016000151581526020016000151581526020016000151581526020016110f56111a5565b81525090565b828054611107906118d2565b90600052602060002090601f0160209004810192826111295760008555611177565b82601f1061113a5780548555611177565b8280016001018555821561117757600052602060002091601f016020900482015b8281111561117657825482559160010191906001019061115b565b5b5090506111849190611188565b5090565b5b808211156111a1576000816000905550600101611189565b5090565b6040518060600160405280600073ffffffffffffffffffffffffffffffffffffffff16815260200160008152602001606081525090565b60006111ef6111ea846117b1565b61178c565b90508281526020810184848401111561120757600080fd5b611212848285611890565b509392505050565b600081359050611229816119f6565b92915050565b600082601f83011261124057600080fd5b81356112508482602086016111dc565b91505092915050565b60008135905061126881611a0d565b92915050565b60006020828403121561128057600080fd5b600061128e8482850161121a565b91505092915050565b600080604083850312156112aa57600080fd5b60006112b88582860161121a565b925050602083013567ffffffffffffffff8111156112d557600080fd5b6112e18582860161122f565b9150509250929050565b6000602082840312156112fd57600080fd5b600061130b84828501611259565b91505092915050565b60006113208383611491565b905092915050565b61133181611848565b82525050565b61134081611848565b82525050565b6000611351826117f2565b61135b8185611815565b93508360208202850161136d856117e2565b8060005b858110156113a9578484038952815161138a8582611314565b945061139583611808565b925060208a01995050600181019050611371565b50829750879550505050505092915050565b6113c48161185a565b82525050565b6113d38161185a565b82525050565b60006113e4826117fd565b6113ee8185611826565b93506113fe81856020860161189f565b61140781611993565b840191505092915050565b600061141d826117fd565b6114278185611837565b935061143781856020860161189f565b61144081611993565b840191505092915050565b6000611458601483611837565b9150611463826119a4565b602082019050919050565b600061147b601183611837565b9150611486826119cd565b602082019050919050565b60006060830160008301516114a96000860182611328565b5060208301516114bc60208601826115a7565b50604083015184820360408601526114d482826113d9565b9150508091505092915050565b60006060830160008301516114f96000860182611328565b50602083015161150c60208601826115a7565b506040830151848203604086015261152482826113d9565b9150508091505092915050565b600060a0830160008301516115496000860182611328565b50602083015161155c60208601826113bb565b50604083015161156f60408601826113bb565b50606083015161158260608601826113bb565b506080830151848203608086015261159a8282611491565b9150508091505092915050565b6115b081611886565b82525050565b6115bf81611886565b82525050565b60006020820190506115da6000830184611337565b92915050565b600060a0820190506115f56000830188611337565b61160260208301876113ca565b61160f60408301866113ca565b61161c60608301856113ca565b818103608083015261162e81846114e1565b90509695505050505050565b600060608201905061164f6000830186611337565b81810360208301526116618185611412565b905081810360408301526116758184611412565b9050949350505050565b60006060820190506116946000830186611337565b6116a160208301856115b6565b81810360408301526116b38184611412565b9050949350505050565b600060208201905081810360008301526116d78184611346565b905092915050565b60006020820190506116f460008301846113ca565b92915050565b600060408201905081810360008301526117148185611412565b90506117236020830184611337565b9392505050565b600060208201905081810360008301526117438161144b565b9050919050565b600060208201905081810360008301526117638161146e565b9050919050565b600060208201905081810360008301526117848184611531565b905092915050565b60006117966117a7565b90506117a28282611904565b919050565b6000604051905090565b600067ffffffffffffffff8211156117cc576117cb611964565b5b6117d582611993565b9050602081019050919050565b6000819050602082019050919050565b600081519050919050565b600081519050919050565b6000602082019050919050565b600082825260208201905092915050565b600082825260208201905092915050565b600082825260208201905092915050565b600061185382611866565b9050919050565b60008115159050919050565b600073ffffffffffffffffffffffffffffffffffffffff82169050919050565b6000819050919050565b82818337600083830152505050565b60005b838110156118bd5780820151818401526020810190506118a2565b838111156118cc576000848401525b50505050565b600060028204905060018216806118ea57607f821691505b602082108114156118fe576118fd611935565b5b50919050565b61190d82611993565b810181811067ffffffffffffffff8211171561192c5761192b611964565b5b80604052505050565b7f4e487b7100000000000000000000000000000000000000000000000000000000600052602260045260246000fd5b7f4e487b7100000000000000000000000000000000000000000000000000000000600052604160045260246000fd5b6000601f19601f8301169050919050565b7f706c656173652072656769737465722066697273000000000000000000000000600082015250565b7f616c72656164792070726f706f73656421000000000000000000000000000000600082015250565b6119ff81611848565b8114611a0a57600080fd5b50565b611a1681611886565b8114611a2157600080fd5b5056fea2646970667358221220e07e0b52b62dfc4e81edfbf07dd06941c6b76c405a7d8844c914c2e00a4074aa64736f6c63430008040033",
  "linkReferences": {},
  "deployedLinkReferences": {}
}