{
  "_format": "hh-sol-artifact-1",
  "contractName": "VotingProposals",
  "sourceName": "contracts/VotingProposals.sol",
  "abi": [
    {
      "inputs": [],
      "stateMutability": "nonpayable",
      "type": "constructor"
    },
    {
      "anonymous": false,
      "inputs": [],
      "name": "ProposalsChange",
      "type": "event"
    },
    {
      "anonymous": false,
      "inputs": [
        {
          "indexed": false,
          "internalType": "string",
          "name": "_session",
          "type": "string"
        }
      ],
      "name": "SessionChange",
      "type": "event"
    },
    {
      "inputs": [
        {
          "internalType": "string",
          "name": "_session",
          "type": "string"
        }
      ],
      "name": "changeSession",
      "outputs": [],
      "stateMutability": "nonpayable",
      "type": "function"
    },
    {
      "inputs": [
        {
          "internalType": "address",
          "name": "_user",
          "type": "address"
        }
      ],
      "name": "contains",
      "outputs": [
        {
          "internalType": "bool",
          "name": "",
          "type": "bool"
        }
      ],
      "stateMutability": "view",
      "type": "function"
    },
    {
      "inputs": [
        {
          "internalType": "uint256",
          "name": "index",
          "type": "uint256"
        }
      ],
      "name": "getProposal",
      "outputs": [
        {
          "components": [
            {
              "internalType": "address",
              "name": "proposedBy",
              "type": "address"
            },
            {
              "internalType": "uint256",
              "name": "vote",
              "type": "uint256"
            },
            {
              "internalType": "string",
              "name": "text",
              "type": "string"
            }
          ],
          "internalType": "struct VotingProposals.Proposal",
          "name": "",
          "type": "tuple"
        }
      ],
      "stateMutability": "view",
      "type": "function"
    },
    {
      "inputs": [],
      "name": "getProposalsLength",
      "outputs": [
        {
          "internalType": "uint256",
          "name": "",
          "type": "uint256"
        }
      ],
      "stateMutability": "view",
      "type": "function"
    },
    {
      "inputs": [],
      "name": "owner",
      "outputs": [
        {
          "internalType": "address",
          "name": "",
          "type": "address"
        }
      ],
      "stateMutability": "view",
      "type": "function"
    },
    {
      "inputs": [
        {
          "internalType": "address",
          "name": "",
          "type": "address"
        }
      ],
      "name": "proposalByUser",
      "outputs": [
        {
          "internalType": "address",
          "name": "proposedBy",
          "type": "address"
        },
        {
          "internalType": "uint256",
          "name": "vote",
          "type": "uint256"
        },
        {
          "internalType": "string",
          "name": "text",
          "type": "string"
        }
      ],
      "stateMutability": "view",
      "type": "function"
    },
    {
      "inputs": [
        {
          "internalType": "uint256",
          "name": "",
          "type": "uint256"
        }
      ],
      "name": "proposedUsers",
      "outputs": [
        {
          "internalType": "address",
          "name": "",
          "type": "address"
        }
      ],
      "stateMutability": "view",
      "type": "function"
    },
    {
      "inputs": [
        {
          "internalType": "address",
          "name": "_user",
          "type": "address"
        }
      ],
      "name": "registerUser",
      "outputs": [],
      "stateMutability": "nonpayable",
      "type": "function"
    },
    {
      "inputs": [
        {
          "internalType": "address",
          "name": "",
          "type": "address"
        }
      ],
      "name": "registerdVoters",
      "outputs": [
        {
          "internalType": "bool",
          "name": "",
          "type": "bool"
        }
      ],
      "stateMutability": "view",
      "type": "function"
    },
    {
      "inputs": [
        {
          "internalType": "address",
          "name": "_user",
          "type": "address"
        }
      ],
      "name": "retriveUser",
      "outputs": [
        {
          "components": [
            {
              "internalType": "address",
              "name": "userAddress",
              "type": "address"
            },
            {
              "internalType": "bool",
              "name": "isVoted",
              "type": "bool"
            },
            {
              "internalType": "bool",
              "name": "isProposed",
              "type": "bool"
            },
            {
              "internalType": "bool",
              "name": "isRegistered",
              "type": "bool"
            }
          ],
          "internalType": "struct VotingProposals.User",
          "name": "",
          "type": "tuple"
        }
      ],
      "stateMutability": "view",
      "type": "function"
    },
    {
      "inputs": [
        {
          "internalType": "address",
          "name": "_user",
          "type": "address"
        },
        {
          "internalType": "string",
          "name": "_proposal",
          "type": "string"
        }
      ],
      "name": "sendProposal",
      "outputs": [],
      "stateMutability": "nonpayable",
      "type": "function"
    },
    {
      "inputs": [],
      "name": "session",
      "outputs": [
        {
          "internalType": "string",
          "name": "",
          "type": "string"
        }
      ],
      "stateMutability": "view",
      "type": "function"
    },
    {
      "inputs": [
        {
          "internalType": "address",
          "name": "",
          "type": "address"
        }
      ],
      "name": "userByAddress",
      "outputs": [
        {
          "internalType": "address",
          "name": "userAddress",
          "type": "address"
        },
        {
          "internalType": "bool",
          "name": "isVoted",
          "type": "bool"
        },
        {
          "internalType": "bool",
          "name": "isProposed",
          "type": "bool"
        },
        {
          "internalType": "bool",
          "name": "isRegistered",
          "type": "bool"
        }
      ],
      "stateMutability": "view",
      "type": "function"
    },
    {
      "inputs": [
        {
          "internalType": "address",
          "name": "_user",
          "type": "address"
        },
        {
          "internalType": "address",
          "name": "_voteFor",
          "type": "address"
        }
      ],
      "name": "vote",
      "outputs": [],
      "stateMutability": "nonpayable",
      "type": "function"
    }
  ],
  "bytecode": "0x60806040523480156200001157600080fd5b50336000806101000a81548173ffffffffffffffffffffffffffffffffffffffff021916908373ffffffffffffffffffffffffffffffffffffffff1602179055506040518060400160405280600d81526020017f7265676973746572557365727300000000000000000000000000000000000000815250600690805190602001906200009f929190620001e1565b506200010c6040518060400160405280600981526020017f6f776e65722069733a000000000000000000000000000000000000000000000081525060008054906101000a900473ffffffffffffffffffffffffffffffffffffffff166200011260201b620011071760201c565b62000413565b620001b482826040516024016200012b929190620002e3565b6040516020818303038152906040527f319af333000000000000000000000000000000000000000000000000000000007bffffffffffffffffffffffffffffffffffffffffffffffffffffffff19166020820180517bffffffffffffffffffffffffffffffffffffffffffffffffffffffff8381831617835250505050620001b860201b60201c565b5050565b60008151905060006a636f6e736f6c652e6c6f679050602083016000808483855afa5050505050565b828054620001ef906200039d565b90600052602060002090601f0160209004810192826200021357600085556200025f565b82601f106200022e57805160ff19168380011785556200025f565b828001600101855582156200025f579182015b828111156200025e57825182559160200191906001019062000241565b5b5090506200026e919062000272565b5090565b5b808211156200028d57600081600090555060010162000273565b5090565b6200029c8162000333565b82525050565b6000620002af8262000317565b620002bb818562000322565b9350620002cd81856020860162000367565b620002d88162000402565b840191505092915050565b60006040820190508181036000830152620002ff8185620002a2565b905062000310602083018462000291565b9392505050565b600081519050919050565b600082825260208201905092915050565b6000620003408262000347565b9050919050565b600073ffffffffffffffffffffffffffffffffffffffff82169050919050565b60005b83811015620003875780820151818401526020810190506200036a565b8381111562000397576000848401525b50505050565b60006002820490506001821680620003b657607f821691505b60208210811415620003cd57620003cc620003d3565b5b50919050565b7f4e487b7100000000000000000000000000000000000000000000000000000000600052602260045260246000fd5b6000601f19601f8301169050919050565b611e6480620004236000396000f3fe608060405234801561001057600080fd5b50600436106100ea5760003560e01c80638da5cb5b1161008c578063b085c68811610066578063b085c6881461025e578063bc378a731461028e578063c7f758a8146102ac578063f897bb24146102dc576100ea565b80638da5cb5b146101dd578063989e5ea9146101fb578063abb999bb1461022e576100ea565b80635e3568b8116100c85780635e3568b8146101575780636d52ebd71461017557806384275f0b14610191578063858e7ce6146101c1576100ea565b80631afa74e5146100ef5780632199d5cd1461010b5780635dbe47e814610127575b600080fd5b610109600480360381019061010491906113a5565b61030e565b005b6101256004803603810190610120919061137c565b61055e565b005b610141600480360381019061013c919061137c565b61077e565b60405161014e91906118e3565b60405180910390f35b61015f6107d4565b60405161016c91906118fe565b60405180910390f35b61018f600480360381019061018a9190611435565b610862565b005b6101ab60048036038101906101a6919061137c565b610942565b6040516101b89190611a34565b60405180910390f35b6101db60048036038101906101d691906113e1565b610a42565b005b6101e5610d7f565b6040516101f29190611845565b60405180910390f35b6102156004803603810190610210919061137c565b610da3565b6040516102259493929190611860565b60405180910390f35b6102486004803603810190610243919061137c565b610e1a565b60405161025591906118e3565b60405180910390f35b61027860048036038101906102739190611476565b610e3a565b6040516102859190611845565b60405180910390f35b610296610e79565b6040516102a39190611a4f565b60405180910390f35b6102c660048036038101906102c19190611476565b610e86565b6040516102d39190611a12565b60405180910390f35b6102f660048036038101906102f1919061137c565b611035565b604051610305939291906118a5565b60405180910390f35b816103188161077e565b610357576040517f08c379a000000000000000000000000000000000000000000000000000000000815260040161034e90611992565b60405180910390fd5b60405160200161036690611830565b60405160208183030381529060405280519060200120600660405160200161038e9190611804565b60405160208183030381529060405280519060200120146103e4576040517f08c379a00000000000000000000000000000000000000000000000000000000081526004016103db906119d2565b60405180910390fd5b60001515600360008573ffffffffffffffffffffffffffffffffffffffff1673ffffffffffffffffffffffffffffffffffffffff16815260200190815260200160002060000160149054906101000a900460ff1615151461047a576040517f08c379a0000000000000000000000000000000000000000000000000000000008152600401610471906119f2565b60405180910390fd5b600460008373ffffffffffffffffffffffffffffffffffffffff1673ffffffffffffffffffffffffffffffffffffffff16815260200190815260200160002060010160008154809291906104cd90611bfa565b91905055506001600360008573ffffffffffffffffffffffffffffffffffffffff1673ffffffffffffffffffffffffffffffffffffffff16815260200190815260200160002060000160146101000a81548160ff0219169083151502179055507f095e0822402402a17b7f31ee5e522bfc553def6930675ac96c71c9551f238e7560405160405180910390a1505050565b60008054906101000a900473ffffffffffffffffffffffffffffffffffffffff1673ffffffffffffffffffffffffffffffffffffffff163373ffffffffffffffffffffffffffffffffffffffff16146105ec576040517f08c379a00000000000000000000000000000000000000000000000000000000081526004016105e390611972565b60405180910390fd5b6105f58161077e565b61077b576001600260008373ffffffffffffffffffffffffffffffffffffffff1673ffffffffffffffffffffffffffffffffffffffff16815260200190815260200160002060006101000a81548160ff02191690831515021790555060405180608001604052808273ffffffffffffffffffffffffffffffffffffffff16815260200160001515815260200160001515815260200160011515815250600360008373ffffffffffffffffffffffffffffffffffffffff1673ffffffffffffffffffffffffffffffffffffffff16815260200190815260200160002060008201518160000160006101000a81548173ffffffffffffffffffffffffffffffffffffffff021916908373ffffffffffffffffffffffffffffffffffffffff16021790555060208201518160000160146101000a81548160ff02191690831515021790555060408201518160000160156101000a81548160ff02191690831515021790555060608201518160000160166101000a81548160ff0219169083151502179055509050505b50565b6000600260008373ffffffffffffffffffffffffffffffffffffffff1673ffffffffffffffffffffffffffffffffffffffff16815260200190815260200160002060009054906101000a900460ff169050919050565b600680546107e190611b97565b80601f016020809104026020016040519081016040528092919081815260200182805461080d90611b97565b801561085a5780601f1061082f5761010080835404028352916020019161085a565b820191906000526020600020905b81548152906001019060200180831161083d57829003601f168201915b505050505081565b60008054906101000a900473ffffffffffffffffffffffffffffffffffffffff1673ffffffffffffffffffffffffffffffffffffffff163373ffffffffffffffffffffffffffffffffffffffff16146108f0576040517f08c379a00000000000000000000000000000000000000000000000000000000081526004016108e790611972565b60405180910390fd5b80600690805190602001906109069291906111cc565b507ff367370e37b4140722b0062d1528a979fc1114214ef4786580f7f4471016a09460066040516109379190611950565b60405180910390a150565b61094a611252565b600360008373ffffffffffffffffffffffffffffffffffffffff1673ffffffffffffffffffffffffffffffffffffffff1681526020019081526020016000206040518060800160405290816000820160009054906101000a900473ffffffffffffffffffffffffffffffffffffffff1673ffffffffffffffffffffffffffffffffffffffff1673ffffffffffffffffffffffffffffffffffffffff1681526020016000820160149054906101000a900460ff161515151581526020016000820160159054906101000a900460ff161515151581526020016000820160169054906101000a900460ff1615151515815250509050919050565b81610a4c8161077e565b610a8b576040517f08c379a0000000000000000000000000000000000000000000000000000000008152600401610a8290611992565b60405180910390fd5b604051602001610a9a9061181b565b604051602081830303815290604052805190602001206006604051602001610ac29190611804565b6040516020818303038152906040528051906020012014610b18576040517f08c379a0000000000000000000000000000000000000000000000000000000008152600401610b0f906119d2565b60405180910390fd5b600360008473ffffffffffffffffffffffffffffffffffffffff1673ffffffffffffffffffffffffffffffffffffffff16815260200190815260200160002060000160159054906101000a900460ff1615610ba8576040517f08c379a0000000000000000000000000000000000000000000000000000000008152600401610b9f906119b2565b60405180910390fd5b600060405180606001604052808573ffffffffffffffffffffffffffffffffffffffff1681526020016000815260200184815250905080600460008673ffffffffffffffffffffffffffffffffffffffff1673ffffffffffffffffffffffffffffffffffffffff16815260200190815260200160002060008201518160000160006101000a81548173ffffffffffffffffffffffffffffffffffffffff021916908373ffffffffffffffffffffffffffffffffffffffff160217905550602082015181600101556040820151816002019080519060200190610c8b9291906111cc565b509050506001600360008673ffffffffffffffffffffffffffffffffffffffff1673ffffffffffffffffffffffffffffffffffffffff16815260200190815260200160002060000160156101000a81548160ff0219169083151502179055506005849080600181540180825580915050600190039060005260206000200160009091909190916101000a81548173ffffffffffffffffffffffffffffffffffffffff021916908373ffffffffffffffffffffffffffffffffffffffff1602179055507f095e0822402402a17b7f31ee5e522bfc553def6930675ac96c71c9551f238e7560405160405180910390a150505050565b60008054906101000a900473ffffffffffffffffffffffffffffffffffffffff1681565b60036020528060005260406000206000915090508060000160009054906101000a900473ffffffffffffffffffffffffffffffffffffffff16908060000160149054906101000a900460ff16908060000160159054906101000a900460ff16908060000160169054906101000a900460ff16905084565b60026020528060005260406000206000915054906101000a900460ff1681565b60058181548110610e4a57600080fd5b906000526020600020016000915054906101000a900473ffffffffffffffffffffffffffffffffffffffff1681565b6000600580549050905090565b610e8e611296565b6004600060058481548110610ecc577f4e487b7100000000000000000000000000000000000000000000000000000000600052603260045260246000fd5b9060005260206000200160009054906101000a900473ffffffffffffffffffffffffffffffffffffffff1673ffffffffffffffffffffffffffffffffffffffff1673ffffffffffffffffffffffffffffffffffffffff1681526020019081526020016000206040518060600160405290816000820160009054906101000a900473ffffffffffffffffffffffffffffffffffffffff1673ffffffffffffffffffffffffffffffffffffffff1673ffffffffffffffffffffffffffffffffffffffff16815260200160018201548152602001600282018054610fac90611b97565b80601f0160208091040260200160405190810160405280929190818152602001828054610fd890611b97565b80156110255780601f10610ffa57610100808354040283529160200191611025565b820191906000526020600020905b81548152906001019060200180831161100857829003601f168201915b5050505050815250509050919050565b60046020528060005260406000206000915090508060000160009054906101000a900473ffffffffffffffffffffffffffffffffffffffff169080600101549080600201805461108490611b97565b80601f01602080910402602001604051908101604052809291908181526020018280546110b090611b97565b80156110fd5780601f106110d2576101008083540402835291602001916110fd565b820191906000526020600020905b8154815290600101906020018083116110e057829003601f168201915b5050505050905083565b61119f828260405160240161111d929190611920565b6040516020818303038152906040527f319af333000000000000000000000000000000000000000000000000000000007bffffffffffffffffffffffffffffffffffffffffffffffffffffffff19166020820180517bffffffffffffffffffffffffffffffffffffffffffffffffffffffff83818316178352505050506111a3565b5050565b60008151905060006a636f6e736f6c652e6c6f679050602083016000808483855afa5050505050565b8280546111d890611b97565b90600052602060002090601f0160209004810192826111fa5760008555611241565b82601f1061121357805160ff1916838001178555611241565b82800160010185558215611241579182015b82811115611240578251825591602001919060010190611225565b5b50905061124e91906112cd565b5090565b6040518060800160405280600073ffffffffffffffffffffffffffffffffffffffff1681526020016000151581526020016000151581526020016000151581525090565b6040518060600160405280600073ffffffffffffffffffffffffffffffffffffffff16815260200160008152602001606081525090565b5b808211156112e65760008160009055506001016112ce565b5090565b60006112fd6112f884611a8f565b611a6a565b90508281526020810184848401111561131557600080fd5b611320848285611b55565b509392505050565b60008135905061133781611e00565b92915050565b600082601f83011261134e57600080fd5b813561135e8482602086016112ea565b91505092915050565b60008135905061137681611e17565b92915050565b60006020828403121561138e57600080fd5b600061139c84828501611328565b91505092915050565b600080604083850312156113b857600080fd5b60006113c685828601611328565b92505060206113d785828601611328565b9150509250929050565b600080604083850312156113f457600080fd5b600061140285828601611328565b925050602083013567ffffffffffffffff81111561141f57600080fd5b61142b8582860161133d565b9150509250929050565b60006020828403121561144757600080fd5b600082013567ffffffffffffffff81111561146157600080fd5b61146d8482850161133d565b91505092915050565b60006020828403121561148857600080fd5b600061149684828501611367565b91505092915050565b6114a881611b0d565b82525050565b6114b781611b0d565b82525050565b6114c681611b1f565b82525050565b6114d581611b1f565b82525050565b60006114e682611ad5565b6114f08185611ae0565b9350611500818560208601611b64565b61150981611cd0565b840191505092915050565b600061151f82611ad5565b6115298185611af1565b9350611539818560208601611b64565b61154281611cd0565b840191505092915050565b6000815461155a81611b97565b6115648186611af1565b9450600182166000811461157f5760018114611591576115c4565b60ff19831686526020860193506115c4565b61159a85611ac0565b60005b838110156115bc5781548189015260018201915060208101905061159d565b808801955050505b50505092915050565b600081546115da81611b97565b6115e48186611b02565b945060018216600081146115ff576001811461161057611643565b60ff19831686528186019350611643565b61161985611ac0565b60005b8381101561163b5781548189015260018201915060208101905061161c565b838801955050505b50505092915050565b6000611659601883611af1565b915061166482611ce1565b602082019050919050565b600061167c600d83611b02565b915061168782611d0a565b600d82019050919050565b600061169f601683611af1565b91506116aa82611d33565b602082019050919050565b60006116c2601183611af1565b91506116cd82611d5c565b602082019050919050565b60006116e5601783611af1565b91506116f082611d85565b602082019050919050565b6000611708600883611b02565b915061171382611dae565b600882019050919050565b600061172b601283611af1565b915061173682611dd7565b602082019050919050565b6000606083016000830151611759600086018261149f565b50602083015161176c60208601826117e6565b506040830151848203604086015261178482826114db565b9150508091505092915050565b6080820160008201516117a7600085018261149f565b5060208201516117ba60208501826114bd565b5060408201516117cd60408501826114bd565b5060608201516117e060608501826114bd565b50505050565b6117ef81611b4b565b82525050565b6117fe81611b4b565b82525050565b600061181082846115cd565b915081905092915050565b60006118268261166f565b9150819050919050565b600061183b826116fb565b9150819050919050565b600060208201905061185a60008301846114ae565b92915050565b600060808201905061187560008301876114ae565b61188260208301866114cc565b61188f60408301856114cc565b61189c60608301846114cc565b95945050505050565b60006060820190506118ba60008301866114ae565b6118c760208301856117f5565b81810360408301526118d98184611514565b9050949350505050565b60006020820190506118f860008301846114cc565b92915050565b600060208201905081810360008301526119188184611514565b905092915050565b6000604082019050818103600083015261193a8185611514565b905061194960208301846114ae565b9392505050565b6000602082019050818103600083015261196a818461154d565b905092915050565b6000602082019050818103600083015261198b8161164c565b9050919050565b600060208201905081810360008301526119ab81611692565b9050919050565b600060208201905081810360008301526119cb816116b5565b9050919050565b600060208201905081810360008301526119eb816116d8565b9050919050565b60006020820190508181036000830152611a0b8161171e565b9050919050565b60006020820190508181036000830152611a2c8184611741565b905092915050565b6000608082019050611a496000830184611791565b92915050565b6000602082019050611a6460008301846117f5565b92915050565b6000611a74611a85565b9050611a808282611bc9565b919050565b6000604051905090565b600067ffffffffffffffff821115611aaa57611aa9611ca1565b5b611ab382611cd0565b9050602081019050919050565b60008190508160005260206000209050919050565b600081519050919050565b600082825260208201905092915050565b600082825260208201905092915050565b600081905092915050565b6000611b1882611b2b565b9050919050565b60008115159050919050565b600073ffffffffffffffffffffffffffffffffffffffff82169050919050565b6000819050919050565b82818337600083830152505050565b60005b83811015611b82578082015181840152602081019050611b67565b83811115611b91576000848401525b50505050565b60006002820490506001821680611baf57607f821691505b60208210811415611bc357611bc2611c72565b5b50919050565b611bd282611cd0565b810181811067ffffffffffffffff82111715611bf157611bf0611ca1565b5b80604052505050565b6000611c0582611b4b565b91507fffffffffffffffffffffffffffffffffffffffffffffffffffffffffffffffff821415611c3857611c37611c43565b5b600182019050919050565b7f4e487b7100000000000000000000000000000000000000000000000000000000600052601160045260246000fd5b7f4e487b7100000000000000000000000000000000000000000000000000000000600052602260045260246000fd5b7f4e487b7100000000000000000000000000000000000000000000000000000000600052604160045260246000fd5b6000601f19601f8301169050919050565b7f6f6e6c7920637261746572206f6620636f6e7472616374200000000000000000600082015250565b7f73656e6450726f706f73616c7300000000000000000000000000000000000000600082015250565b7f706c656173652072656167697374657220666972737400000000000000000000600082015250565b7f616c72656164792070726f706f73656421000000000000000000000000000000600082015250565b7f6e6f7420746869732073657373696f6e20696e20617070000000000000000000600082015250565b7f676574566f746573000000000000000000000000000000000000000000000000600082015250565b7f796f7520616c726561647920766f746564210000000000000000000000000000600082015250565b611e0981611b0d565b8114611e1457600080fd5b50565b611e2081611b4b565b8114611e2b57600080fd5b5056fea264697066735822122071a0c311f7c04037de07fd5ee86b170c42ffed212b280f9c245bef7311404a1d64736f6c63430008040033",
  "linkReferences": {},
  "deployedLinkReferences": {}
}